{"abi":[{"type":"function","name":"getExampleData","inputs":[],"outputs":[{"name":"","type":"uint256","internalType":"uint256"}],"stateMutability":"pure"}],"bytecode":{"object":"0x608060405234801561001057600080fd5b5060b08061001f6000396000f3fe6080604052348015600f57600080fd5b506004361060285760003560e01c8063b5bc337e14602d575b600080fd5b60336045565b60405190815260200160405180910390f35b6000604f602a6054565b905090565b6000605f82607b6065565b92915050565b60008219821115609e577f4e487b7100000000000000000000000000000000000000000000000000000000600052601160045260246000fd5b50019056fea164736f6c634300080f000a","linkReferences":{}},"methodIdentifiers":{"getExampleData()":"b5bc337e"},"storageLayout":{"storage":[],"types":{}},"userdoc":{"version":1,"kind":"user"},"devdoc":{"version":1,"kind":"dev"},"id":0}